:100000000C9463000C948B000C948B000C948B006C
:100010000C948B000C948B000C948B000C948B0034
:100020000C948B000C948B000C948B000C948B0024
:100030000C948B000C948B000C948B000C948B0014
:100040000C94F4020C948B000C9464030C943E0307
:100050000C948B000C948B000C948B000C948B00F4
:100060000C948B000C948B000000000023002600F1
:10007000290000000008000201000003040700003E
:1000800000000000000000000000250028002B00F8
:1000900000000000240027002A00040404040404D3
:1000A0000404020202020202030303030303010227
:1000B00004081020408001020408102001020408F6
:1000C00010209603810511241FBECFEFD8E0DEBFBC
:1000D000CDBF11E0A0E0B1E0EAE4F2E102C005909A
:1000E0000D92AA33B107D9F721E0AAE3B1E001C02C
:1000F0001D92A13FB207E1F710E0C2E6D0E004C0D4
:100100002197FE010E94E007C136D107C9F70E947E
:1001100034040C9418090C9400000895CF92DF92D7
:10012000EF92FF920F931F93CF93DF936C017A01AD
:100130008B01C0E0D0E0CE15DF0589F0D8016D91CC
:100140008D01D601ED91FC910190F081E02DC60169
:100150000995892B11F47E0102C02196ECCFC701CD
:10016000DF91CF911F910F91FF90EF90DF90CF9093
:100170000895FC01918D828D981761F0828DDF01C9
:10018000A80FB11D5D968C91928D9F5F9F73928F8A
:1001900090E008958FEF9FEF0895FC01918D828D7F
:1001A000981731F0828DE80FF11D858D90E008954C
:1001B0008FEF9FEF0895FC01918D228D892F90E0A4
:1001C000805C9F4F821B91098F739927089583E468
:1001D00091E00E94DB0021E0892B09F420E0822FCE
:1001E0000895FC01848DDF01A80FB11DA35ABF4FF4
:1001F0002C91848D90E001968F739927848FA68926
:10020000B7892C93A089B1898C9180648C93938D4C
:10021000848D981306C00288F389E02D80818F7D3C
:1002200080830895EF92FF920F931F93CF93DF93F4
:10023000EC0181E0888F9B8D8C8D981305C0E88937
:10024000F989808185FD24C0F62E0B8D10E00F5FAB
:100250001F4F0F731127E02E8C8DE8120CC00FB6C4
:1002600007FCFACFE889F989808185FFF5CFCE01B7
:100270000E94F100F1CF8B8DFE01E80FF11DE35AD2
:10028000FF4FF0820B8FEA89FB898081806207C073
:10029000EE89FF896083E889F989808180648083A1
:1002A00081E090E0DF91CF911F910F91FF90EF904F
:1002B0000895CF93DF93EC01888D8823C9F0EA89F4
:1002C000FB89808185FD05C0A889B9898C9186FD4F
:1002D0000FC00FB607FCF5CF808185FFF2CFA8894C
:1002E000B9898C9185FFEDCFCE010E94F100E7CF57
:1002F000DF91CF91089580E090E0892B29F00E9452
:10030000E70081110C9400000895833081F028F4F7
:10031000813099F08230A1F008958730A9F08830BB
:10032000B9F08430D1F4809180008F7D03C080913A
:1003300080008F7780938000089584B58F7702C006
:1003400084B58F7D84BD08958091B0008F7703C000
:100350008091B0008F7D8093B0000895CF93DF939C
:10036000282F30E0F901EE58FF4F8491F901E25552
:10037000FF4FD491F901E656FF4FC491CC2391F081
:1003800081110E948501EC2FF0E0EE0FFF1FE8596C
:10039000FF4FA591B491EC91ED2381E090E021F421
:1003A00080E002C080E090E0DF91CF9108951F933C
:1003B000CF93DF93282F30E0F901EE58FF4F84915F
:1003C000F901E255FF4FD491F901E656FF4FC49170
:1003D000CC23C9F0162F81110E948501EC2FF0E08B
:1003E000EE0FFF1FEA57FF4FA591B4918FB7F89416
:1003F000111105C09C91ED2FE095E92302C0EC910D
:10040000ED2BEC938FBFDF91CF911F9108954F9209
:100410005F926F927F92BF92CF92DF92EF92FF92A4
:100420000F931F93CF93DF9300D01F92CDB7DEB70A
:100430008C01F80183810E94AE01892BD1F733E052
:10044000B32E412C512C32014394BA94EFEFBE16D7
:1004500009F43CC057E0E52EF12CCC24C394D12CF8
:10046000CC0EDD1ECB0CD11C61E0F80182810E9414
:10047000D701F80183810E94AE01892B71F0F6014A
:100480002081D301C2010E2C04C0880F991FAA1F1E
:10049000BB1F0A94D2F7822B0EC0D301C2010E2CCF
:1004A00004C0880F991FAA1FBB1F0A94D2F780951A
:1004B000F60190818923808360E0F80182810E94A7
:1004C000D701F1E0EF1AF10878F6BFCFE12CF12C5B
:1004D000F801848190E0E816F90674F461E0F8010F
:1004E00082810E94D70160E0F80182810E94D701D9
:1004F000FFEFEF1AFF0AECCF6A81862F90E0A0E0B1
:10050000B0E0BA2FA92F982F88272981822B2B8121
:100510002058BC01CD01822B0F900F900F90DF91DE
:10052000CF911F910F91FF90EF90DF90CF90BF90F0
:100530007F906F905F904F900895009769F0FC0155
:1005400001900020E9F73197AF01481B590BBC011E
:1005500083E491E00C948E0080E090E008958F9207
:100560009F92AF92BF920F931F93CF93DF93CDB71C
:10057000DEB7A1970FB6F894DEBF0FBECDBF19A2AC
:10058000423008F44AE08E010F5D1F4F842E912CFB
:10059000A12CB12CA50194010E94BE07E62FB90140
:1005A000CA0101501109EA3014F4E05D01C0E95CB0
:1005B000D801EC93232B242B252B61F7C8010E9433
:1005C0009D02A1960FB6F894DEBF0FBECDBFDF919E
:1005D000CF911F910F91BF90AF909F908F900895F2
:1005E0000E9413090C947B081F920F920FB60F9272
:1005F00011242F933F938F939F93AF93BF93809139
:100600003F0190914001A0914101B0914201309190
:100610003E0123E0230F2D3720F40196A11DB11DCB
:1006200005C026E8230F0296A11DB11D20933E01AF
:1006300080933F0190934001A0934101B093420108
:1006400080913A0190913B01A0913C01B0913D0114
:100650000196A11DB11D80933A0190933B01A09397
:100660003C01B0933D01BF91AF919F918F913F911C
:100670002F910F900FBE0F901F9018951F920F9201
:100680000FB60F9211242F933F934F935F936F9365
:100690007F938F939F93AF93BF93EF93FF9383E4E5
:1006A00091E00E94F100FF91EF91BF91AF919F9176
:1006B0008F917F916F915F914F913F912F910F900B
:1006C0000FBE0F901F9018951F920F920FB60F92AA
:1006D00011242F938F939F93EF93FF93E0915301F6
:1006E000F09154018081E0915901F0915A0182FD0D
:1006F00012C0908180915C018F5F8F7320915D01AA
:10070000821751F0E0915C01F0E0ED5BFE4F958FB8
:1007100080935C0101C08081FF91EF919F918F9147
:100720002F910F900FBE0F901F901895CF93DF93CE
:10073000109246011092450188EE93E0A0E0B0E0EF
:100740008093470190934801A0934901B0934A01D7
:100750008AE091E0909344018093430185EC90E01E
:100760009093500180934F0184EC90E0909352015C
:100770008093510180EC90E0909354018093530159
:1007800081EC90E0909356018093550182EC90E0CB
:10079000909358018093570186EC90E090935A0112
:1007A0008093590110925C0110925D0110925E01DC
:1007B00010925F018AE191E09093E1018093E00162
:1007C00082E08093E20183E08093E301E0EBF0E0DC
:1007D0002491ECE9F0E08491882399F090E0880F6F
:1007E000991FFC01E057FF4FA591B491FC01EA5716
:1007F000FF4F859194918FB7F894EC91E22BEC9395
:100800008FBF8091E30190E0FC01E255FF4F2491FE
:10081000FC01E656FF4F84918823C1F090E0880FD9
:10082000991FFC01E057FF4FC591D491FC01EA5795
:10083000FF4FA591B4919FB7F8948881E22FE0957E
:100840008E2388838C91E823EC939FBF81E0809373
:10085000E40160E08091E2010E94D70180EE91E026
:10086000DF91CF910C940702789484B5826084BDA7
:1008700084B5816084BD85B5826085BD85B58160A4
:1008800085BD80916E00816080936E001092810022
:1008900080918100826080938100809181008160DD
:1008A000809381008091800081608093800080919E
:1008B000B10084608093B1008091B000816080932A
:1008C000B00080917A00846080937A0080917A00F1
:1008D000826080937A0080917A00816080937A00B0
:1008E00080917A00806880937A001092C100E09134
:1008F0005301F091540182E08083E0914F01F09127
:1009000050011082E0915101F09152018FEC8083EF
:1009100010925B01E0915701F091580186E08083CD
:10092000E0915501F0915601808180618083E091D2
:100930005501F0915601808188608083E0915501D6
:10094000F0915601808180688083E0915501F0919B
:10095000560180818F7D808380E098E0A8E6B6E430
:100960008093E9019093EA01A093EB01B093EC012D
:1009700084EC9EE0A1E8B0E08093E5019093E6016D
:10098000A093E701B093E8018EE191E00E949D02FF
:1009900080EE91E00E940702C090E501D090E60150
:1009A000E090E701F090E8016C197D098E099F093C
:1009B0000E9497062091E9013091EA014091EB01F4
:1009C0005091EC010E94F4056B017C014B015C012C
:1009D0009B01AC010E94B907882319F087E291E0DE
:1009E0001AC026013701E89477F82FEF3FEF4FE761
:1009F0005FE7C301B2010E94B90781110FC02FEF59
:100A00003FEF4FE75FE7C301B2010E94EF05181601
:100A10002CF48BE291E00E949D0268C02FEF3FEF23
:100A20004FE75FE4C701B6010E94470718161CF4A0
:100A30008FE291E0F0CF2FEF3FEF4FE75FECC70180
:100A4000B6010E94EF0587FDF3CF20E030E0A90159
:100A5000C701B6010E94EF0587FF11C0E091430175
:100A6000F09144010190F081E02D6DE283E491E08A
:100A7000099546015701B7FAB094B7F8B0942DEC38
:100A80003CEC4CE45DE3C501B4010E9483054B01DD
:100A90005C010E9466066B017C010E9495069B0129
:100AA000AC01C501B4010E9482054B015C014AE022
:100AB000C701B6010E94AF02E0914301F0914401E9
:100AC0000190F081E02D6EE283E491E0099520E051
:100AD00030E040E251E4C501B4010E944C070E949D
:100AE000660680E090E04AE00E94AF0283E391E076
:100AF0000E949D0287E391E00E949D020E947B017B
:100B000043CF08955058BB27AA270E949A050C94FA
:100B10000D070E94FF0638F00E94060720F039F406
:100B20009F3F19F426F40C94FC060EF4E095E7FBC5
:100B30000C94F606E92F0E941E0758F3BA176207B5
:100B400073078407950720F079F4A6F50C94400705
:100B50000EF4E0950B2EBA2FA02D0B01B9019001D8
:100B60000C01CA01A0011124FF27591B99F0593F1C
:100B700050F4503E68F11A16F040A22F232F342F64
:100B80004427585FF3CF469537952795A795F040B2
:100B90005395C9F77EF41F16BA0B620B730B840BC7
:100BA000BAF09150A1F0FF0FBB1F661F771F881F7F
:100BB000C2F70EC0BA0F621F731F841F48F48795D7
:100BC00077956795B795F7959E3F08F0B0CF9395C9
:100BD000880F08F09927EE0F9795879508950E9442
:100BE000D20608F481E008950E9408060C940D07CF
:100BF0000E94060758F00E94FF0640F029F45F3F6C
:100C000029F00C94F60651110C9441070C94FC0643
:100C10000E941E0768F39923B1F3552391F3951BA6
:100C2000550BBB27AA2762177307840738F09F5F0D
:100C30005F4F220F331F441FAA1FA9F335D00E2E7A
:100C40003AF0E0E832D091505040E695001CCAF7E7
:100C50002BD0FE2F29D0660F771F881FBB1F2617AA
:100C600037074807AB07B0E809F0BB0B802DBF0181
:100C7000FF2793585F4F3AF09E3F510578F00C9450
:100C8000F6060C9441075F3FE4F3983ED4F3869553
:100C900077956795B795F7959F5FC9F7880F911D71
:100CA0009695879597F90895E1E0660F771F881F5D
:100CB000BB1F621773078407BA0720F0621B730B10
:100CC000840BBA0BEE1F88F7E09508950E94260763
:100CD00088F09F5798F0B92F9927B751B0F0E1F0FD
:100CE000660F771F881F991F1AF0BA95C9F714C0AD
:100CF000B13091F00E944007B1E008950C94400794
:100D0000672F782F8827B85F39F0B93FCCF38695E5
:100D100077956795B395D9F73EF490958095709542
:100D200061957F4F8F4F9F4F0895E89409C097FBBF
:100D30003EF490958095709561957F4F8F4F9F4FB2
:100D40009923A9F0F92F96E9BB279395F6958795F6
:100D500077956795B795F111F8CFFAF4BB0F11F4B9
:100D600060FF1BC06F5F7F4F8F4F9F4F16C0882360
:100D700011F096E911C0772321F09EE8872F762F96
:100D800005C0662371F096E8862F70E060E02AF0D7
:100D90009A95660F771F881FDAF7880F96958795C3
:100DA00097F90895990F0008550FAA0BE0E8FEEF98
:100DB00016161706E807F907C0F012161306E4071F
:100DC000F50798F0621B730B840B950B39F40A2618
:100DD00061F0232B242B252B21F408950A2609F4F6
:100DE000A140A6958FEF811D811D089597F99F67FA
:100DF00080E870E060E008959FEF80EC08950024A3
:100E00000A941616170618060906089500240A946F
:100E100012161306140605060895092E0394000CF5
:100E200011F4882352F0BB0F40F4BF2B11F460FF84
:100E300004C06F5F7F4F8F4F9F4F089557FD9058AD
:100E4000440F551F59F05F3F71F04795880F97FB8E
:100E5000991F61F09F3F79F0879508951216130648
:100E60001406551FF2CF4695F1DF08C01616170677
:100E70001806991FF1CF86957105610508940895AC
:100E8000E894BB2766277727CB0197F908950E943E
:100E9000D20608F48FEF08950E945F070C940D07A7
:100EA0000E94FF0638F00E94060720F0952311F0FB
:100EB0000C94F6060C94FC0611240C9441070E9435
:100EC0001E0770F3959FC1F3950F50E0551F629F69
:100ED000F001729FBB27F00DB11D639FAA27F00D93
:100EE000B11DAA1F649F6627B00DA11D661F829FBA
:100EF0002227B00DA11D621F739FB00DA11D621F9F
:100F0000839FA00D611D221F749F3327A00D611DBB
:100F1000231F849F600D211D822F762F6A2F11249D
:100F20009F5750409AF0F1F088234AF0EE0FFF1FD0
:100F3000BB1F661F771F881F91505040A9F79E3F27
:100F4000510580F00C94F6060C9441075F3FE4F3E2
:100F5000983ED4F3869577956795B795F795E7957D
:100F60009F5FC1F7FE2B880F911D9695879597F986
:100F700008950E94D206880B990B0895A1E21A2EBB
:100F8000AA1BBB1BFD010DC0AA1FBB1FEE1FFF1F2D
:100F9000A217B307E407F50720F0A21BB30BE40B7D
:100FA000F50B661F771F881F991F1A9469F76095C4
:100FB0007095809590959B01AC01BD01CF0108957E
:100FC000EE0FFF1F0590F491E02D0994CF93DF936E
:100FD0008230910510F482E090E0E091EF01F09111
:100FE000F00120E030E0C0E0D0E0309711F1408126
:100FF000518148175907C0F04817590761F4828199
:101000009381209719F09B838A832BC09093F001E2
:101010008093EF0126C02115310519F042175307BF
:1010200018F49A01BE01DF01EF010280F381E02D87
:10103000DCCF2115310509F1281B390B243031058E
:1010400090F412968D919C9113976115710521F082
:10105000FB019383828304C09093F0018093EF019E
:10106000FD01329644C0FD01E20FF31F819391937D
:10107000225031092D933C933AC02091ED013091DB
:10108000EE01232B41F420910201309103013093B2
:10109000EE012093ED012091000130910101211515
:1010A000310541F42DB73EB740910401509105013F
:1010B000241B350BE091ED01F091EE01E217F307EF
:1010C000A0F42E1B3F0B2817390778F0AC014E5FB8
:1010D0005F4F2417350748F04E0F5F1F5093EE0106
:1010E0004093ED018193919302C0E0E0F0E0CF01E5
:1010F000DF91CF9108950F931F93CF93DF930097C4
:1011000009F48CC0FC013297138212820091EF0126
:101110001091F0010115110581F420813181820FB8
:10112000931F2091ED013091EE012817390779F5D1
:10113000F093EE01E093ED0171C0D80140E050E082
:10114000AE17BF0750F412962D913C911397AD0145
:101150002115310509F1D901F3CF9D01DA0133835E
:10116000228360817181860F971F8217930769F42C
:10117000EC0128813981260F371F2E5F3F4F3183C5
:1011800020838A819B8193838283452B29F4F0936A
:10119000F001E093EF0142C01396FC93EE93129797
:1011A000ED01499159919E01240F351FE217F30774
:1011B00071F480819181840F951F029611969C9302
:1011C0008E938281938113969C938E931297E0E085
:1011D000F0E0D80112968D919C911397009719F029
:1011E000F8018C01F6CF8D919C9198012E5F3F4FB5
:1011F000820F931F2091ED013091EE0128173907DE
:1012000069F4309729F41092F0011092EF0102C0B6
:10121000138212821093EE010093ED01DF91CF91C2
:101220001F910F91089581E090E0F8940C941809B3
:1012300010E0C2E6D0E004C0FE010E94E007219663
:0A124000C336D107C9F7F894FFCFB9
:10124A000000F10180000000000012018E00DB00A6
:10125A00B900CD005901000000008D00F2024F6470
:10126A00637A79743A20006E616E00696E66006F67
:0A127A00766600206B67000D0A0085
:00000001FF
