:100000000C94E0000C9408010C9408010C949107E6
:100010000C9491070C9491070C941F060C94080102
:100020000C9408010C9408010C9425050C94980577
:100030000C94DE040C9408010C9408010C94080143
:100040000C9494040C9408010C94BC030C94960337
:100050000C9408010C9408010C9408010C940801FC
:100060000C9408010C94080100407A10F35A00A087
:10007000724E18090010A5D4E80000E87648170071
:1000800000E40B54020000CA9A3B000000E1F505B1
:10009000000080969800000040420F000000A086FB
:1000A00001000000102700000000E803000000002D
:1000B0006400000000000A000000000001000000D1
:1000C00000002C76D888DC674F0823DFC1DFAE59EB
:1000D000E1B1B796E5E3E453C63AE651997696E87E
:1000E000E6C28426EB898C9B62ED407C6FFCEFBC02
:1000F0009C9F40F2BAA56FA5F490055A2AF75C932D
:100100006B6CF9676DC11BFCE0E40D47FEF520E662
:10011000B500D0ED902E0300943577050080841E45
:10012000080000204E0A000000C80C333333330FA0
:10013000986E12831141EF8D2114893BE65516CF3D
:10014000FEE6DB18D1844B381BF77C1D901DA4BB49
:10015000E424203284725E228100C9F124ECA1E5FE
:100160003D2700000000240027002A0000000008AE
:10017000000201000003040700000000000000006E
:1001800000000000250028002B00000000002300D4
:1001900026002900040404040404040402020202E8
:1001A000020203030303030301020408102040803A
:1001B000010204081020010204081020310F090F69
:1001C00011241FBECFEFD8E0DEBFCDBF25E0ACE6E7
:1001D000B3E001C01D92A93CB207E1F713E0A0E033
:1001E000B1E0EEEEFCE202C005900D92AC36B10734
:1001F000D9F710E0CFEDD0E004C02197FE010E94B6
:100200003215CE3DD107C9F70E94390A0C946A16FF
:100210000C940000CF92DF92EF92FF920F931F9306
:10022000CF93DF936C017A018B01C0E0D0E0CE1553
:10023000DF0589F0D8016D918D01D601ED91FC911A
:100240000190F081E02DC6010995892B11F47E0102
:1002500002C02196ECCFC701DF91CF911F910F9182
:10026000FF90EF90DF90CF900895FC01918D828DEB
:10027000981761F0828DDF01A80FB11D5D968C91FA
:10028000928D9F5F9F73928F90E008958FEF9FEF05
:100290000895FC01918D828D981731F0828DE80FC1
:1002A000F11D858D90E008958FEF9FEF0895FC017B
:1002B000918D228D892F90E0805C9F4F821B910948
:1002C0008F73992708958BEC94E00E94570121E0E9
:1002D000892B09F420E0822F0895FC01848DDF0131
:1002E000A80FB11DA35ABF4F2C91848D90E00196A9
:1002F0008F739927848FA689B7892C93A089B18998
:100300008C9180648C93938D848D981306C00288A1
:10031000F389E02D80818F7D80830895EF92FF9295
:100320000F931F93CF93DF93EC0181E0888F9B8D18
:100330008C8D981305C0E889F989808185FD24C0DA
:10034000F62E0B8D10E00F5F1F4F0F731127E02E5D
:100350008C8DE8120CC00FB607FCFACFE889F9893A
:10036000808185FFF5CFCE010E946D01F1CF8B8D8D
:10037000FE01E80FF11DE35AFF4FF0820B8FEA896F
:10038000FB898081806207C0EE89FF896083E889EC
:10039000F98980818064808381E090E0DF91CF9152
:1003A0001F910F91FF90EF900895CF93DF93EC0191
:1003B000888D8823C9F0EA89FB89808185FD05C085
:1003C000A889B9898C9186FD0FC00FB607FCF5CFBF
:1003D000808185FFF2CFA889B9898C9185FFEDCF07
:1003E000CE010E946D01E7CFDF91CF91089580E0AB
:1003F00090E0892B29F00E94630181110C94000088
:100400000895833081F028F4813099F08230A1F092
:1004100008958730A9F08830B9F08430D1F4809104
:1004200080008F7D03C0809180008F778093800053
:10043000089584B58F7702C084B58F7D84BD0895FB
:100440008091B0008F7703C08091B0008F7D809342
:10045000B0000895CF93DF93282F30E0F901E459DD
:10046000FE4F8491F901E855FE4FD491F901EC5605
:10047000FE4FC491CC2391F081110E940102EC2F18
:10048000F0E0EE0FFF1FE657FE4FA591B491EC91FF
:10049000ED2381E090E021F480E002C080E090E074
:1004A000DF91CF9108953FB7F89480914A049091DD
:1004B0004B04A0914C04B0914D0426B5A89B05C0F7
:1004C0002F3F19F00196A11DB11D3FBFBA2FA92FD3
:1004D000982F8827820F911DA11DB11DBC01CD0150
:1004E00042E0660F771F881F991F4A95D1F708953C
:1004F0005091940540919505852F90E0242F30E090
:10050000541710F4805B9F4F821B930B08958091CA
:100510009405E09195058E1751F0EF5FE03508F0F6
:10052000E0E0F0E0E750FC4F808190E008958FEF2D
:100530009FEF08958091940590919505891769F032
:100540009F5F903508F090E0E92FF0E0E750FC4F16
:1005500080819093950590E008958FEF9FEF089527
:10056000809196058111FCCF08958091F1038F5FF2
:10057000843408F080E09091F0039817E1F32FB7EE
:10058000F89490919605992341F0E82FF0E0E45516
:10059000FC4F60838093F1031DC081E0809396053A
:1005A0006093F3031092F20382E086BB80916F00A8
:1005B000826080936F00809180008F738068809349
:1005C00080008091840090918500409690938900EE
:1005D000809388002FBF81E090E00895209150041F
:1005E000309151042817390771F490914E0480918D
:1005F0004F04981741F0E0914E04F0E0E459FC4FAD
:10060000808190E008958FEF9FEF089508951F93E4
:10061000CF93DF93DC015C962D913C915D97211582
:10062000310539F481E090E013969C938E931297F4
:100630003DC05196ED91FC91529750969C915097E8
:10064000892F80951FB75E964C915E9741FB772767
:1006500070F941FD6095F8944081772311F0492BA2
:1006600001C048234083E9012197F1F748E0508118
:1006700060FF02C0592B01C058235083E901219724
:10068000F1F76695415099F7772321F090818923FE
:10069000808303C08081982B90831FBF5C968D91CF
:1006A0009C915D970197F1F721E030E0C901DF915E
:1006B000CF911F9108952091500430915104281733
:1006C000390771F480914F0420914E0490E0805CD2
:1006D0009F4F821B910960E470E00E94E814089526
:1006E00080E090E008952091500430915104281743
:1006F0003907B9F490914E0480914F04981789F00E
:10070000E0914E04F0E0E459FC4F808120914E04CA
:1007100030E02F5F3F4F2F73332720934E0490E03C
:1007200008958FEF9FEF08950C94CD151F920F92AF
:100730000FB60F9211242F933F934F935F936F93B4
:100740007F938F939F93AF93BF93EF93FF938BEC24
:1007500094E00E946D01FF91EF91BF91AF919F9145
:100760008F917F916F915F914F913F912F910F905A
:100770000FBE0F901F9018951F920F920FB60F92F9
:1007800011242F938F939F93EF93FF93E091DB04BA
:10079000F091DC048081E091E104F091E20482FDBB
:1007A00012C090818091E4048F5F8F732091E504E3
:1007B000821751F0E091E404F0E0E553FB4F958F90
:1007C0008093E40401C08081FF91EF919F918F910C
:1007D0002F910F900FBE0F901F9018951F93CF93DE
:1007E000DF93282F30E0F901E459FE4F8491F9019D
:1007F000E855FE4FD491F901EC56FE4FC491CC233D
:10080000C9F0162F81110E940102EC2FF0E0EE0FCB
:10081000FF1FE058FE4FA591B4918FB7F8941111C6
:1008200005C09C91ED2FE095E92302C0EC91ED2BE2
:10083000EC938FBFDF91CF911F910895CF93DF93FA
:1008400090E0FC01E855FE4F2491FC01EC56FE4F70
:100850008491882361F190E0880F991FFC01EE5983
:10086000FE4FC591D491FC01E058FE4FA591B49183
:10087000611109C09FB7F8948881209582238883ED
:10088000EC912E230BC0623061F49FB7F89438814D
:10089000822F809583238883EC912E2B2C939FBFEE
:1008A00006C08FB7F894E8812E2B28838FBFDF9185
:1008B000CF9108958F929F92AF92BF92CF92DF9285
:1008C000EF92FF926B017C010E9453024B015C018D
:1008D000C114D104E104F104F1F00E945302DC01DF
:1008E000CB0188199909AA09BB09883E9340A10543
:1008F000B10570F321E0C21AD108E108F10888EED1
:10090000880E83E0981EA11CB11CC114D104E1041F
:10091000F10419F7DDCFFF90EF90DF90CF90BF90FB
:10092000AF909F908F9008951F920F920FB60F92E5
:1009300011242F933F938F939F93AF93BF938091F5
:10094000520490915304A0915404B09155043091F5
:10095000490423E0230F2D3720F40196A11DB11D7A
:1009600005C026E8230F0296A11DB11D209349045E
:100970008093520490935304A0935404B09355046D
:1009800080914A0490914B04A0914C04B0914D0485
:100990000196A11DB11D80934A0490934B04A0932E
:1009A0004C04B0934D04BF91AF919F918F913F91B3
:1009B0002F910F900FBE0F901F9018951F920F92BE
:1009C0000FB60F9211242F938F939F93EF93FF9362
:1009D00080916F008B7F80936F00809181008F7B6F
:1009E000809381008091F8032091F7032058909123
:1009F000F603893020F49695922B8F5FFACF90936F
:100A0000F603809194058F5F803508F080E0209197
:100A10009505821739F0E82FF0E0E750FC4F9083FE
:100A2000809394051092F803809181008F7B8093CE
:100A300081001092F703FF91EF919F918F912F9179
:100A40000F900FBE0F901F9018951F920F920FB628
:100A50000F9211242F933F934F938F939F93EF9374
:100A6000FF9320918600309187004091F703809199
:100A70008100442331F08F7B809381001092F70333
:100A800006C080648093810080E88093F703909192
:100A9000F803911115C041113FC030938B00209392
:100AA0008A0084E086BB80916F00846080936F0031
:100AB0003093F5032093F40381E08093F8032CC076
:100AC0002091F7038091F6038695822B9F5F9930E2
:100AD000D8F38093F60380916F008B7F80936F0033
:100AE000809194058F5F803508F080E090919505A6
:100AF000891749F0E82FF0E09091F603E750FC4F9A
:100B0000908380939405809181008F7B80938100F6
:100B10001092F7031092F803FF91EF919F918F913C
:100B20004F913F912F910F900FBE0F901F901895EE
:100B30001F920F920FB60F9211242F933F934F9352
:100B40005F938F939F93EF93FF93809196052091EE
:100B5000F30340918800509189009091F2038A300C
:100B6000E8F4893019F0322F317001C031E0269558
:100B70008F5F3917A1F390918000332311F0906CAF
:100B800002C09F73906890938000509389004093B7
:100B900088003093F2032093F30342C09091F10355
:100BA000E091F0039E1317C08A3041F48BE08093EC
:100BB0009605509389004093880034C010929605A2
:100BC000809180008F738093800080916F008D7F73
:100BD00080936F0027C0EF5FE43408F0E0E0E0931B
:100BE000F003F0E0E455FC4F90819093F3031092F2
:100BF000F203909180009F739068909380008A30F8
:100C000029F4509389004093880009C080918400A2
:100C1000909185004096909389008093880081E0B0
:100C200080939605FF91EF919F918F915F914F91E6
:100C30003F912F910F900FBE0F901F9018951F920C
:100C40000F920FB60F9211248F930FB6F894A895B8
:100C500080916000886180936000109260000FBEF8
:100C60008F910F900FBE0F901F9018954115510551
:100C700029F4EAE7F0E080818F7780836A3071059C
:100C8000A9F063FD02C088E001C088E26770682BAC
:100C900088E10FB6F894A895809360000FBE60932A
:100CA0006000E0E6F0E0808180648083232BA1F483
:100CB00083B7817F846083BFF89483B7816083BFEB
:100CC00085B7806685BF8F7D85BF7894889583B70B
:100CD0008E7F83BF78940EC083B7817F846083BF8B
:100CE000F89483B7816083BF7894889583B78E7FAB
:100CF00083BF7894452B29F4EAE7F0E0808180688F
:100D0000808308954F925F927F928F929F92AF92CD
:100D1000BF92CF92DF92EF92FF920F931F93CF93E8
:100D2000DF931F92CDB7DEB7FC012FB7F894809107
:100D3000520490915304A0915404B09155042FBFD4
:100D400045855685678570898C019D01041B150BAF
:100D5000260B370B418552854130510529F04FEC68
:100D600057E060E070E004C047EE53E060E070E000
:100D7000041715072607370708F4C2C02F01858717
:100D80009687A787B08B80E090E0A0ECBFE78083D8
:100D90009183A283B38384839583A683B78360E022
:100DA00080850E94EE0361E0F20180850E941E04AE
:100DB000F20181859285019739F462E170E080E06B
:100DC00090E00E945A0404C08BE79CE00197F1F781
:100DD00060E0F20180850E941E0461E0F2018085DE
:100DE0000E94EE0300E010E0C12CD12CE12CF12C8C
:100DF0002DEFB22E0E945302762EFB2DF170AF2EF6
:100E00008F2EFF0F99080E945302262F27192B358A
:100E100018F081E090E030C0F201808529830E94C3
:100E20002A0229818815990571F3B7FC08C0AA2008
:100E300031F0EE0CFF1C2F3110F06894E0F8FFE168
:100E4000BF1639F08FE3B81205C08701E12CF12CF1
:100E500001C06701B394E0E5BE12CCCF6D2D7727BA
:100E6000A12EB12C802F8C0D860F810F90E08E1556
:100E70009F0531F082E090E0F2019487838740C0C3
:100E8000F20181859285019779F480E090E00E94DB
:100E9000AA12F2016483758386839783B50180E08B
:100EA00090E00E94AA1224C0B60180E090E00E9467
:100EB000AA122DEC3CEC4CEC5DE30E940B13F2010A
:100EC0006483758386839783B80177FF05C07F7736
:100ED00000271127061B170BB801110F880B990B60
:100EE0000E94AC122DEC3CEC4CEC5DE30E940B1329
:100EF000F2016083718382839383F20114861386E7
:100F00000F90DF91CF911F910F91FF90EF90DF90A5
:100F1000CF90BF90AF909F908F907F905F904F90B9
:100F200008951F920F920FB60F9211242F933F93A3
:100F30004F935F936F937F938F939F93AF93BF93E1
:100F4000EF93FF93E0915004F0915104309709F42E
:100F500051C0968DA685B785858591FF04C09C916B
:100F6000892329F447C09C91892309F043C0A389B0
:100F7000B4899C918589809589238C9386899789EA
:100F80000197F1F7608D718DA685B785558538E09D
:100F900020E0CB010197F1F7822F90E0959587959E
:100FA000282F4C91452309F02068315091F7868D08
:100FB00081FD209580914F0490E001968F739927D1
:100FC00030914E04381749F0A0914F04B0E0A45975
:100FD000BC4F2C9380934F0403C0868D8160868F15
:100FE000828D938D0197F1F7A389B4899C918589AE
:100FF000892B8C93FF91EF91BF91AF919F918F912E
:101000007F916F915F914F913F912F910F900FBE04
:101010000F901F901895E0915004F0915104E8173B
:10102000F90769F4A389B4899C91858980958923FE
:101030008C93109251041092500481E0089580E046
:1010400008954F925F926F927F92BF92CF92DF92FC
:10105000EF92FF920F931F93CF93DF9300D01F92D5
:10106000CDB7DEB78C01F80183810E942A02892B5B
:10107000D1F733E0B32E412C512C32014394BA9472
:10108000EFEFBE1609F43CC057E0E52EF12CCC245E
:10109000C394D12CCC0EDD1ECB0CD11C61E0F80129
:1010A00082810E94EE03F80183810E942A02892B2B
:1010B00071F0F6012081D301C2010E2C04C0880F0B
:1010C000991FAA1FBB1F0A94D2F7822B0EC0D3010F
:1010D000C2010E2C04C0880F991FAA1FBB1F0A94BF
:1010E000D2F78095F60190818923808360E0F80132
:1010F00082810E94EE03F1E0EF1AF10878F6BFCF8B
:10110000E12CF12CF801848190E0E816F90674F4E2
:1011100061E0F80182810E94EE0360E0F8018281C3
:101120000E94EE03FFEFEF1AFF0AECCF6A81862FD1
:1011300090E0A0E0B0E0BA2FA92F982F882729814E
:10114000822B2B812058BC01CD01822B0F900F9058
:101150000F90DF91CF911F910F91FF90EF90DF9053
:10116000CF90BF907F906F905F904F9008950895BB
:101170006115710579F0FB0101900020E9F73197C5
:10118000AF01461B570BDC01ED91FC910280F3810E
:10119000E02D099480E090E0089564E372E00C94FF
:1011A000B8080C94B8080F931F93CF93DF93EC010A
:1011B0000E94B8088C01CE010E94CD08800F911FBB
:1011C000DF91CF911F910F9108950E946516E091D4
:1011D000CB04F091CC040190F081E02D682F8BECD2
:1011E00094E009948F929F92AF92BF920F931F93B6
:1011F000CF93DF93CDB7DEB7A1970FB6F894DEBFDC
:101200000FBECDBF19A2423008F44AE08E010F5D37
:101210001F4F842E912CA12CB12CA50194010E946A
:10122000FC14E62FB901CA0101501109EA3014F487
:10123000E05D01C0E95CD801EC93232B242B252B26
:1012400061F7B8018BEC94E00E94B808A1960FB644
:10125000F894DEBF0FBECDBFDF91CF911F910F91EC
:10126000BF90AF909F908F9008954F925F926F9232
:101270007F928F929F92AF92BF92CF92DF92EF9226
:10128000FF926B017C01B42E9B01AC010E94E31420
:10129000882319F060E673E027C026013701E8943F
:1012A00077F82FEF3FEF4FE75FE7C301B2010E94EE
:1012B000E31481110DC02FEF3FEF4FE75FE7C3014C
:1012C000B2010E94A51218161CF464E673E00CC06B
:1012D0002FEF3FEF4FE75FE4C701B6010E94DE1436
:1012E000181694F468E673E08BEC94E0FF90EF90AE
:1012F000DF90CF90BF90AF909F908F907F906F9036
:101300005F904F900C94B8082FEF3FEF4FE75FECE2
:10131000C701B6010E94A51287FDE4CF20E030E0AE
:10132000A901C701B6010E94A51287FF09C08DE27D
:101330000E94E7084C01F7FAF094F7F8F09402C025
:10134000812C912CA12C60E070E080E09FE3AB1435
:1013500041F020E030E040E251E40E943614A394D2
:10136000F6CF9B01AC01C701B6010E94CA132B0145
:101370003C010E94AF146B017C010E94AA129B01E8
:10138000AC01C301B2010E94C9132B013C014AE028
:10139000C701B6010E94F2087C01E80CF91CBB20D1
:1013A00029F08EE20E94E708E80EF91EDB2CDD2012
:1013B00021F120E030E040E251E4C301B2010E949B
:1013C0000B132B013C010E94AF144B01A12CB12C3B
:1013D0004AE0C501B4010E94F208E80EF91EC501F9
:1013E000B4010E94AA129B01AC01C301B2010E9488
:1013F000C9132B013C01DA94DACFC701FF90EF90BB
:10140000DF90CF90BF90AF909F908F907F906F9024
:101410005F904F900895CF92DF92EF92FF92CF931B
:10142000DF936C01990FEE08FF08F7FE17C08DE2FD
:101430000E94E708EC0166277727CB016C197D092C
:101440008E099F094AE00E94F2088C0F9D1FDF91D0
:10145000CF91FF90EF90DF90CF9008954AE0C701C1
:10146000B601DF91CF91FF90EF90DF90CF900C9479
:10147000F208789484B5826084BD84B5816084BDAF
:1014800085B5826085BD85B5816085BD80916E0022
:10149000816080936E001092810080918100826053
:1014A0008093810080918100816080938100809190
:1014B00080008160809380008091B100846080937F
:1014C000B1008091B00081608093B00080917A007B
:1014D000846080937A0080917A00826080937A00A1
:1014E00080917A00816080937A0080917A00806890
:1014F00080937A001092C10061E08AE00E941E048D
:10150000E091DB04F091DC0492E09083E091D70459
:10151000F091D8041082E091D904F091DA048FECB4
:1015200080831092E304E091DF04F091E00486E010
:101530008083E091DD04F091DE048081806180830E
:10154000E091DD04F091DE04808188608083E09189
:10155000DD04F091DE04808180688083E091DD0409
:10156000F091DE0480818F7D808390937B041092C4
:101570007D0410927C042FB7F894809152049091CE
:101580005304A0915404B09155042FBF885B9B4035
:10159000A109B1098093800490938104A0938204EF
:1015A000B093830482E090E090937D0480937C0468
:1015B00083E794E00E94820680917E0490917F04EC
:1015C0008130910521F490937D0480937C0483E025
:1015D0008093660410926804109267042FB7F89401
:1015E0008091520490915304A0915404B0915504F9
:1015F0002FBF885B9B40A109B10980936B04909336
:101600006C04A0936D04B0936E0482E090E090931C
:101610006804809367048EE594E00E9482068091BE
:10162000690490916A048130910521F490936804D3
:101630008093670464E670E080E090E00E945A04C2
:101640001092900510928F0510928E0510928D05C4
:1016500010928C0510928B058DE991E09093920584
:101660008093910590918105963108F057C02DEB3C
:1016700030E030938C0520938B052BE931E03093DB
:101680008E0520938D052CE231E030939005209358
:101690008F0520916800983050F031E09E3008F4BA
:1016A00030E081E001C0880F3A95EAF701C084E09C
:1016B000822B80936800983038F09E3040F096314D
:1016C00048F020E030E008C02DE630E005C02BE611
:1016D00030E002C02CE630E0309389052093880585
:1016E000983030F481E001C0880F9A95EAF70EC077
:1016F000292F30E09E3018F42850310902C02E50B6
:10170000310981E001C0880F2A95EAF780938A05A4
:1017100080919105909192050197F1F780918F0545
:1017200090919005892B21F1809150049091510462
:1017300025E085379207E1F0009711F00E940B0831
:10174000809193058E7F8093930510924F041092A1
:101750004E0485E795E09093510480935004E09106
:101760008805F0918905908180918A05892B808375
:1017700064E670E080E090E00E945A0480E098E027
:10178000A8E6B6E48093710590937205A093730563
:10179000B093740584EC9EE0A1E8B0E080936D0501
:1017A00090936E05A0936F05B093700582E090E072
:1017B0009093C6048093C50460ED77E080E090E0EC
:1017C0000E945A0484E0282E312CC5E0D0E096E037
:1017D000E92EF12C27E0C22ED12C38E0A32EB12C1B
:1017E00042E0842E912C2FB7F8948091520490916E
:1017F0005304A0915404B09155042FBF8093C704A3
:101800009093C804A093C904B093CA048091C504FE
:101810009091C6040297E1F466E571E08BEC94E0E8
:101820000E94D30861E08AE00E94EE0368E873E159
:1018300080E090E00E945A0469E871E08BEC94E04B
:101840000E94D30883E090E09093C6048093C5047F
:101850008091C5049091C604039709F05FC06DEABA
:1018600071E08BEC94E00E94D30888E695E00E943A
:10187000210840906D0550906E0560906F05709046
:10188000700564197509860997090E94AC122091A8
:1018900071053091720540917305509174050E9455
:1018A00036142B013C0120E030E0A9010E94A51272
:1018B00087FD09C040925604509257046092580424
:1018C0007092590408C01092560410925704109256
:1018D00058041092590460915604709157048091F5
:1018E0005804909159040AEB14E021E046E00E946C
:1018F0001F10609156047091570480915804909184
:10190000590442E00E9435096BE472E08BEC94E0EC
:101910000E94D3083092C6042092C5048091C50469
:101920009091C604049709F0F4C06FEB71E08BEC62
:1019300094E00E94D30864E670E080E090E00E94AA
:101940005A0483E794E00E948206609177047091C4
:1019500078048091790490917A040E94A81470937D
:10196000720460937104072E000C880B990B0E947F
:10197000AC1200EB14E020E046E00E941F1083E769
:1019800094E00E94820660917304709174048091C7
:101990007504909176040E94A8147093700460936B
:1019A0006F04072E000C880B990B0E94AC1206EAFC
:1019B00014E021E046E00E941F1080917E04909187
:1019C0007F0401970297F0F06CEC71E08BEC94E0EF
:1019D0000E94D10880917104909172040E940B0AB8
:1019E00068ED71E08BEC94E00E94D10880916F0467
:1019F000909170040E940B0A6FED71E08BEC94E003
:101A00000E94D30880917C0490917D04019719F085
:101A100060ED77E002C068EE73E0072E000C880BE3
:101A2000990B0E945A048EE594E00E948206609110
:101A300062047091630480916404909165040E9433
:101A4000A81470935D0460935C04072E000C880B4F
:101A5000990B0E94AC120CE914E020E046E00E94D1
:101A60001F108EE594E00E94820660915E047091E2
:101A70005F0480916004909161040E94A8147093A7
:101A80005B0460935A04072E000C880B990B0E948C
:101A9000AC1202E914E021E046E00E941F108091A0
:101AA000690490916A0401970297F0F062EE71E088
:101AB0008BEC94E00E94D10880915C0490915D04CD
:101AC0000E940B0A68ED71E08BEC94E00E94D10853
:101AD00080915A0490915B040E940B0A6FED71E0B3
:101AE0008BEC94E00E94D308809167049091680485
:101AF000019719F060ED77E002C068EE73E0072E01
:101B0000000C880B990B0E945A04D093C604C09312
:101B1000C5048091C5049091C604059709F04BC097
:101B20006EEE71E08BEC94E00E94D30890E4909309
:101B30007C0080917A00806480937A0080917A00A2
:101B400086FDFCCF609178008091790070E0782B61
:101B5000072E000C880B990B0E94AC122AE038E289
:101B600040EA5BE30E940B139B01AC010E94CA1385
:101B70006093840470938504809386049093870413
:101B800008E814E022E047E00E941F1060918404FE
:101B900070918504809186049091870442E00E94B0
:101BA000350963EA72E08BEC94E00E94D308F0926E
:101BB000C604E092C5048091C5049091C6040697BE
:101BC00009F0CDC066E072E08BEC94E00E94D3088F
:101BD00065E172E085E795E00E94B80868EC70E086
:101BE00080E090E00E945A0461E272E085E795E0AF
:101BF0000E94B80868EC70E080E090E00E945A040F
:101C000067E372E085E795E00E94D30864E472E040
:101C100085E795E00E94D1086AEB74E085E795E0DE
:101C20000E94D1086AE472E085E795E00E94D1083D
:101C300085E795E00E94CD086EE472E085E795E0C7
:101C40000E94D10860EB74E085E795E00E94D1081E
:101C50006EE572E085E795E00E94D10885E795E0A2
:101C60000E94CD0861E672E085E795E00E94D10808
:101C700066EA74E085E795E00E94D10862E772E0C9
:101C800085E795E00E94D10885E795E00E94CD08A0
:101C900065E772E085E795E00E94D1086CE974E0A1
:101CA00085E795E00E94D1086EE572E085E795E052
:101CB0000E94D10885E795E00E94CD0865E872E0B2
:101CC00085E795E00E94D10862E974E085E795E038
:101CD0000E94D10862E772E085E795E00E94D10892
:101CE00085E795E00E94CD0866E972E085E795E01A
:101CF0000E94D10868E874E085E795E00E94D10869
:101D000062EA72E085E795E00E94D10885E795E0F8
:101D10000E94CD082AE939E949EB50E46091840436
:101D20007091850480918604909187040E94A51289
:101D300087FF06C065EA72E085E795E00E94D30858
:101D400068EC70E080E090E00E945A046AE185E768
:101D500095E00E940703D092C604C092C50480910A
:101D6000C5049091C604079771F460E08AE00E9470
:101D7000EE036BEB72E08BEC94E00E94D308B09220
:101D8000C604A092C5048091C5049091C60408972A
:101D9000E9F560EE72E08BEC94E00E94D308412CF0
:101DA000512C320164EF72E08BEC94E00E94D10878
:101DB0004AE0C301B2010E94F2088BEC94E00E9459
:101DC000CD0862E370E080E090E00E945A0420E0D9
:101DD00030E040E050E069E070E084EC94E00E9484
:101DE000360662E370E080E090E00E945A0428E04A
:101DF000420E511C611C711C88E14816510461049B
:101E0000710481F69092C6048092C5040E94F70185
:101E1000EACC8AE391E0909376058093750585E797
:101E200095E00E940B088AE491E09093BA058093B4
:101E3000B90580916F008B7F80936F0080916F0058
:101E40008F7D80936F00809195058093940580919C
:101E500096058111FCCF80916F008D7F80936F007C
:101E600008951092CE041092CD0488EE93E0A0E085
:101E7000B0E08093CF049093D004A093D104B093AA
:101E8000D20422E231E03093CC042093CB0425EC41
:101E900030E03093D8042093D70424EC30E0309322
:101EA000DA042093D90420EC30E03093DC04209352
:101EB000DB0421EC30E03093DE042093DD0422ECDF
:101EC00030E03093E0042093DF0426EC30E03093E0
:101ED000E2042093E1041092E4041092E5041092CD
:101EE000E6041092E7041092BC051092BB058093A3
:101EF000BD059093BE05A093BF05B093C0052AE42D
:101F000031E03093BA052093B9051092780510920C
:101F100077058093790590937A05A0937B05B0931C
:101F20007C058AE391E09093760580937505109285
:101F30008C0510928B0510928E0510928D051092D3
:101F4000900510928F051092920510929105609164
:101F500093056E7F6D7F609393056695617081E058
:101F6000682787E00E94EE0361E087E00E941E047C
:101F7000EFEAF1E0E491E0938505EBE9F1E0E4912B
:101F8000F0E0EE0FFF1FE058FE4F85919491909383
:101F900087058093860560E088E00E941E0480919A
:101FA000930581FD04C061E088E00E94EE0388E0B3
:101FB00080938105E0EBF1E0E491E0938205ECE9A8
:101FC000F1E0E491F0E0EE0FFF1FE657FE4F859140
:101FD0009491909384058093830588E1E6E0F1E095
:101FE000ADE9B5E001900D928A95E1F71092B60542
:101FF0001092B5051092B8051092B70582E391E0F2
:10200000909369058093680584E080936A0585E074
:1020100080936B0561E084E00E941E0460E0809183
:102020006B050E941E0481E080936C0560E0809146
:102030006A050E94EE0388E695E00C942108EF9271
:102040000F931F93CF93DF93E80147FD02C034E065
:1020500001C034E1E42F440FFF0BF7FF03C0F195FB
:10206000E195F109E32E022F2E2FAE010E943F10C1
:10207000CE01DF91CF911F910F91EF9008954F9274
:102080005F926F927F929F92AF92BF92CF92DF92B8
:10209000EF92FF920F931F93CF93DF93CDB7DEB7ED
:1020A00029970FB6F894DEBF0FBECDBF6A01122F7D
:1020B000B02E2BE3201720F0FF24F394F00E02C083
:1020C000BCE3FB2E0F2D27E0AE014F5F5F4F0E9458
:1020D000CD11AC018981982F9970913031F0E1FCDC
:1020E00006C0E0FE06C090E205C09DE203C09BE290
:1020F00001C090E0EE2DE07183FF3CC0911102C061
:1021000083E001C084E0811718F4212F281B01C04F
:1021100020E0E1110BC0F601822F30E2882319F094
:1021200031938150FBCFC20ED11C20E0992329F0BE
:10213000D6019C93F60131966F01C6010396E2FE2B
:102140000AC03EE4D6013C9341E411964C931197AA
:1021500012963C9306C03EE6F601308341E6418389
:102160003283FC01322F40E2332309F442C0419311
:102170003150FACF82FF44C0911102C083E001C008
:1021800084E0811718F4212F281B01C020E0E11101
:102190000BC0F601822F30E2882319F03193815071
:1021A000FBCFC20ED11C20E0992329F0D6019C93CD
:1021B000F60131966F01C6010396E2FE0BC039E4C9
:1021C000D6013C933EE411963C93119736E4129667
:1021D0003C9307C039E6F60130833EE6318336E6AC
:1021E0003283FC01322F40E2332319F04193315006
:1021F000FBCFFC01E20FF11D10828EEF9FEFB7C005
:10220000F1E0911101C0F0E06F2F70E01416150697
:1022100024F49A012F5F3F4F02C021E030E0260FE7
:10222000371FBB2029F06B2D70E06F5F7F4F02C01E
:1022300060E070E0260F371F612F70E02617370728
:102240001CF4121B212F01C020E03E2D387159F4DF
:10225000D601322F60E2332319F06D933150FBCF5A
:10226000C20ED11C20E0FF2331F0D6019C93B601B1
:102270006F5F7F4F6B01E1110BC0F601922F30E3CE
:10228000992319F031939150FBCFC20ED11C20E05D
:102290009F2D940F3A81782F7071A72E84FF03C071
:1022A000313309F49150191624F4993018F098E05C
:1022B00001C091E0E42F852F57FF02C0E0E080E0ED
:1022C0006E2F782FE0E0F0E0AEE29A2E3A01691A24
:1022D00071082A01461A570A0B2D10E01195019535
:1022E00011096F3F8FEF780729F4D6019C92C60140
:1022F00001966C014617570784F0661677066CF452
:102300007F01E40CF51CA1E0B0E0AC0FBD1FEA0EAC
:10231000FB1ED7011196BC9002C090E3B92E61500C
:1023200071093196C60101967C016017710724F08E
:10233000D601BC926C01D5CF6417750741F43633D2
:1023400020F4353321F4A11002C081E3B82EF60148
:10235000B082F701822F90E2882319F09193815087
:10236000FBCFF701E20FF11D108280E090E029968B
:102370000FB6F894DEBF0FBECDBFDF91CF911F9196
:102380000F91FF90EF90DF90CF90BF90AF909F9014
:102390007F906F905F904F900895283008F027E06D
:1023A0003327DA01990F311D87FD91600096610591
:1023B000710539F432602E5F3D9330E32A95E1F7E1
:1023C00008959F3F30F080387105610509F03C5F4A
:1023D0003C5F3D93913008F08068911DDF93CF936F
:1023E0001F930F93FF92EF92192F987F9695E92FE5
:1023F00096959695E90FFF27EE53FF4F99273327C0
:10240000EE24FF24A701E70105900894079428F41F
:10241000360FE71EF81E491F511D660F771F881FD4
:10242000991F0694A1F70590079428F4E70EF81E6B
:10243000491F561FC11D770F881F991F661F0694DD
:10244000A1F70590079428F4F80E491F561FC71FDF
:10245000D11D880F991F661F771F0694A1F705905D
:10246000079420F4490F561FC71FD81F990F661FE6
:10247000771F881F0694A9F784911095177041F073
:10248000D695C79557954795F794E7941A95C1F750
:10249000E8E6F0E068941590159135916591959175
:1024A00005907FE27395E118F10A430B560BC90BB7
:1024B000D009C0F7E10CF11E431F561FC91FD01DE4
:1024C0007EF4703311F48A95E6CFE894015030F031
:1024D000080F0AF40027021708F4202F2395022F73
:1024E0007A3328F079E37D932A95E9F710C07D933C
:1024F0002A9589F6069497956795379517951794B9
:10250000E118F10A430B560BC90BD00998F023953B
:102510007E9173957A3308F070E37C932013B8F7BB
:102520007E9170617D9330F0839571E37D9370E3CC
:102530002A95E1F71124EF90FF900F911F91CF9111
:10254000DF91992787FD909508950E94E71208F47E
:1025500081E00895E89409C097FB3EF4909580953A
:10256000709561957F4F8F4F9F4F9923A9F0F92F59
:1025700096E9BB279395F695879577956795B795D7
:10258000F111F8CFFAF4BB0F11F460FF1BC06F5FBD
:102590007F4F8F4F9F4F16C0882311F096E911C0CF
:1025A000772321F09EE8872F762F05C0662371F0F0
:1025B00096E8862F70E060E02AF09A95660F771F04
:1025C000881FDAF7880F9695879597F90895990FE0
:1025D0000008550FAA0BE0E8FEEF16161706E807ED
:1025E000F907C0F012161306E407F50798F0621B0E
:1025F000730B840B950B39F40A2661F0232B242BE3
:10260000252B21F408950A2609F4A140A6958FEF01
:10261000811D811D08950E941E130C948F130E942A
:10262000811338F00E94881320F0952311F00C9448
:1026300078130C947E1311240C94C3130E94A013DE
:1026400070F3959FC1F3950F50E0551F629FF00105
:10265000729FBB27F00DB11D639FAA27F00DB11D1E
:10266000AA1F649F6627B00DA11D661F829F2227A7
:10267000B00DA11D621F739FB00DA11D621F839F2E
:10268000A00D611D221F749F3327A00D611D231F04
:10269000849F600D211D822F762F6A2F11249F5752
:1026A00050409AF0F1F088234AF0EE0FFF1FBB1F55
:1026B000661F771F881F91505040A9F79E3F510514
:1026C00080F00C9478130C94C3135F3FE4F3983EAE
:1026D000D4F3869577956795B795F795E7959F5FBE
:1026E000C1F7FE2B880F911D9695879597F9089550
:1026F00097F99F6780E870E060E008959FEF80ECB5
:10270000089500240A941616170618060906089557
:1027100000240A9412161306140605060895092EBD
:102720000394000C11F4882352F0BB0F40F4BF2B2C
:1027300011F460FF04C06F5F7F4F8F4F9F4F08956C
:1027400057FD9058440F551F59F05F3F71F0479562
:10275000880F97FB991F61F09F3F79F08795089547
:10276000121613061406551FF2CF4695F1DF08C066
:10277000161617061806991FF1CF86957105610583
:1027800008940895E894BB2766277727CB0197F92B
:1027900008955058BB27AA270E94E1130C948F1369
:1027A0000E94811338F00E94881320F039F49F3F73
:1027B00019F426F40C947E130EF4E095E7FB0C94C8
:1027C0007813E92F0E94A01358F3BA176207730712
:1027D0008407950720F079F4A6F50C94C2130EF443
:1027E000E0950B2EBA2FA02D0B01B90190010C0121
:1027F000CA01A0011124FF27591B99F0593F50F439
:10280000503E68F11A16F040A22F232F342F442790
:10281000585FF3CF469537952795A795F040539588
:10282000C9F77EF41F16BA0B620B730B840BBAF058
:102830009150A1F0FF0FBB1F661F771F881FC2F7C3
:102840000EC0BA0F621F731F841F48F487957795D7
:102850006795B795F7959E3F08F0B0CF9395880F91
:1028600008F09927EE0F9795879508950E944A14CE
:102870000C948F130E94881358F00E94811340F02B
:1028800029F45F3F29F00C94781351110C94C31371
:102890000C947E130E94A01368F39923B1F355237F
:1028A00091F3951B550BBB27AA2762177307840763
:1028B00038F09F5F5F4F220F331F441FAA1FA9F3F9
:1028C00035D00E2E3AF0E0E832D091505040E695E7
:1028D000001CCAF72BD0FE2F29D0660F771F881F48
:1028E000BB1F261737074807AB07B0E809F0BB0B3B
:1028F000802DBF01FF2793585F4F3AF09E3F51054F
:1029000078F00C9478130C94C3135F3FE4F3983E73
:10291000D4F3869577956795B795F7959F5FC9F737
:10292000880F911D9695879597F90895E1E0660FB8
:10293000771F881FBB1F621773078407BA0720F031
:10294000621B730B840BBA0BEE1F88F7E09508959A
:102950000E94AF146894B1110C94C31308950E949F
:10296000A81388F09F5798F0B92F9927B751B0F066
:10297000E1F0660F771F881F991F1AF0BA95C9F703
:1029800014C0B13091F00E94C213B1E008950C94CC
:10299000C213672F782F8827B85F39F0B93FCCF37F
:1029A000869577956795B395D9F73EF49095809580
:1029B000709561957F4F8F4F9F4F08950E94E7124A
:1029C00008F48FEF08950E94E712880B990B089581
:1029D00097FB072E16F4009407D077FD09D00E94CC
:1029E0001E1507FC05D03EF4909581959F4F0895E4
:1029F000709561957F4F0895A1E21A2EAA1BBB1B0B
:102A0000FD010DC0AA1FBB1FEE1FFF1FA217B307BA
:102A1000E407F50720F0A21BB30BE40BF50B661FD0
:102A2000771F881F991F1A9469F760957095809594
:102A300090959B01AC01BD01CF010895AA1BBB1B62
:102A400051E107C0AA1FBB1FA617B70710F0A61BAE
:102A5000B70B881F991F5A95A9F780959095BC01CF
:102A6000CD010895EE0FFF1F0590F491E02D09941C
:102A7000CF93DF938230910510F482E090E0E091F3
:102A8000C705F091C80520E030E0C0E0D0E0309705
:102A900011F14081518148175907C0F04817590773
:102AA00061F482819381209719F09B838A832BC0E4
:102AB0009093C8058093C70526C02115310519F0EC
:102AC0004217530718F49A01BE01DF01EF0102809B
:102AD000F381E02DDCCF2115310509F1281B390BDD
:102AE0002430310590F412968D919C9113976115C5
:102AF000710521F0FB019383828304C09093C80584
:102B00008093C705FD01329644C0FD01E20FF31F1B
:102B100081939193225031092D933C933AC0209197
:102B2000C5053091C605232B41F420910201309157
:102B300003013093C6052093C50520910001309113
:102B400001012115310541F42DB73EB74091040133
:102B500050910501241B350BE091C505F091C60588
:102B6000E217F307A0F42E1B3F0B2817390778F064
:102B7000AC014E5F5F4F2417350748F04E0F5F1FC3
:102B80005093C6054093C5058193919302C0E0E040
:102B9000F0E0CF01DF91CF9108950F931F93CF9372
:102BA000DF93009709F48CC0FC01329713821282E4
:102BB0000091C7051091C8050115110581F4208108
:102BC0003181820F931F2091C5053091C6052817CA
:102BD000390779F5F093C605E093C50571C0D801B2
:102BE00040E050E0AE17BF0750F412962D913C9193
:102BF0001397AD012115310509F1D901F3CF9D01DD
:102C0000DA013383228360817181860F971F8217D7
:102C1000930769F4EC0128813981260F371F2E5F55
:102C20003F4F318320838A819B8193838283452B0D
:102C300029F4F093C805E093C70542C01396FC93AE
:102C4000EE931297ED01499159919E01240F351F82
:102C5000E217F30771F480819181840F951F02962A
:102C600011969C938E938281938113969C938E935D
:102C70001297E0E0F0E0D80112968D919C911397A5
:102C8000009719F0F8018C01F6CF8D919C91980175
:102C90002E5F3F4F820F931F2091C5053091C605CF
:102CA0002817390769F4309729F41092C805109253
:102CB000C70502C0138212821093C6050093C50592
:102CC000DF91CF911F910F91089581E090E0F894EA
:102CD0000C946A1610E0CFEDD0E004C0FE010E9413
:0E2CE00032152196C03ED107C9F7F894FFCFF8
:102CEE000000C9058000010307030B0311031C0339
:102CFE002903390341034B0357035E033E030000D0
:102D0E0000008E010A01570135014901D50100006D
:102D1E000000B70894030000000007030A015B03DC
:102D2E007303EE02060300000000B5020A017802EA
:102D3E009A028702B0024B524F4B203A5A61736986
:102D4E006C616E6965207065727966657269F3777C
:102D5E00207572756368616D69616E6965206D6F4E
:102D6E006475B3F3772E2E2E004B524F4B203A5AEA
:102D7E006173696C616E69652070657279666572E2
:102D8E0069F3772077B3B9637A6F6E65004B524F54
:102D9E004B203A506F6D6961722077616769004B05
:102DAE00524F4B203A20444854313100437A756AD1
:102DBE006E696B20313A2000255248207C20002A73
:102DCE004300437A756A6E696B20323A20004B528B
:102DDE004F4B203A205354414E20414B554D554CAC
:102DEE0041544F5241004B524F4B203A2053494DC4
:102DFE003830304C0041542B434D47463D310D0A7F
:102E0E000041542B434D47533D2237323334393131
:102E1E00303436220D0A003E3E20554C2047534D8D
:102E2E00203C3C00776167613A00206B6700776950
:102E3E006C676F746E6F7363207765773A00202529
:102E4E000074656D70657261747572612077657757
:102E5E003A0020430077696C676F746E6F7363205E
:102E6E007A65773A0074656D70657261747572611A
:102E7E00207A65773A00416B756D756C61746F726F
:102E8E003A002056004B4F4E4945435A4E45204C72
:102E9E0041444F57414E49452021004B524F4B2044
:102EAE003A5A6173696C616E6965207065727966F4
:102EBE00657269F377207779B3B9637A6F6E6500BF
:102ECE004B524F4B203A205573797069616E69658C
:102EDE002E2E2E006F64706F637A7977616D3A20B3
:102EEE00004552524F52004E4F54205245414459C4
:102EFE0000434F4E4E454354204F4B00434F4E4ED2
:102F0E00454354204641494C00414C524541445999
:102F1E0020434F4E4E4543540053454E44204F4B95
:102F2E000053454E44204641494C004441544120F3
:102F3E0041434345505400434C4F534544003E00DB
:0C2F4E006E616E00696E66006F766600B2
:107E0000112484B714BE81FFF0D085E080938100F7
:107E100082E08093C00088E18093C10086E0809377
:107E2000C20080E18093C4008EE0C9D0259A86E02C
:107E300020E33CEF91E0309385002093840096BBD3
:107E4000B09BFECF1D9AA8958150A9F7CC24DD24C4
:107E500088248394B5E0AB2EA1E19A2EF3E0BF2EE7
:107E6000A2D0813461F49FD0082FAFD0023811F036
:107E7000013811F484E001C083E08DD089C08234E0
:107E800011F484E103C0853419F485E0A6D080C0E4
:107E9000853579F488D0E82EFF2485D0082F10E0AE
:107EA000102F00270E291F29000F111F8ED06801E7
:107EB0006FC0863521F484E090D080E0DECF843638
:107EC00009F040C070D06FD0082F6DD080E0C81688
:107ED00080E7D80618F4F601B7BEE895C0E0D1E017
:107EE00062D089930C17E1F7F0E0CF16F0E7DF06D8
:107EF00018F0F601B7BEE89568D007B600FCFDCFD4
:107F0000A601A0E0B1E02C9130E011968C91119780
:107F100090E0982F8827822B932B1296FA010C0160
:107F200087BEE89511244E5F5F4FF1E0A038BF0790
:107F300051F7F601A7BEE89507B600FCFDCF97BE46
:107F4000E89526C08437B1F42ED02DD0F82E2BD052
:107F50003CD0F601EF2C8F010F5F1F4F84911BD097
:107F6000EA94F801C1F70894C11CD11CFA94CF0C13
:107F7000D11C0EC0853739F428D08EE10CD085E9AC
:107F80000AD08FE07ACF813511F488E018D01DD067
:107F900080E101D065CF982F8091C00085FFFCCF94
:107FA0009093C60008958091C00087FFFCCF809118
:107FB000C00084FD01C0A8958091C6000895E0E648
:107FC000F0E098E1908380830895EDDF803219F02E
:107FD00088E0F5DFFFCF84E1DECF1F93182FE3DFCA
:107FE0001150E9F7F2DF1F91089580E0E8DFEE27F6
:047FF000FF270994CA
:027FFE00040479
:0400000300007E007B
:00000001FF
